{
  "contractName": "UserLinkRegistry",
  "abi": [
    {
      "anonymous": false,
      "inputs": [
        {
          "indexed": true,
          "internalType": "address",
          "name": "user",
          "type": "address"
        },
        {
          "indexed": false,
          "internalType": "string",
          "name": "name",
          "type": "string"
        },
        {
          "indexed": false,
          "internalType": "string",
          "name": "link",
          "type": "string"
        }
      ],
      "name": "LinkAdded",
      "type": "event"
    },
    {
      "inputs": [
        {
          "internalType": "address",
          "name": "",
          "type": "address"
        }
      ],
      "name": "users",
      "outputs": [
        {
          "internalType": "string",
          "name": "name",
          "type": "string"
        },
        {
          "internalType": "string",
          "name": "link",
          "type": "string"
        }
      ],
      "stateMutability": "view",
      "type": "function"
    },
    {
      "inputs": [
        {
          "internalType": "string",
          "name": "_name",
          "type": "string"
        },
        {
          "internalType": "string",
          "name": "_link",
          "type": "string"
        }
      ],
      "name": "addLink",
      "outputs": [],
      "stateMutability": "nonpayable",
      "type": "function"
    },
    {
      "inputs": [
        {
          "internalType": "address",
          "name": "_user",
          "type": "address"
        }
      ],
      "name": "getUserLink",
      "outputs": [
        {
          "internalType": "string",
          "name": "name",
          "type": "string"
        },
        {
          "internalType": "string",
          "name": "link",
          "type": "string"
        }
      ],
      "stateMutability": "view",
      "type": "function"
    }
  ],
  "bytecode": "0x608060405234801561000f575f80fd5b50610a5a8061001d5f395ff3fe608060405234801561000f575f80fd5b506004361061003f575f3560e01c80630fec9efa146100435780638ee50cf51461005f578063a87430ba14610090575b5f80fd5b61005d600480360381019061005891906105a8565b6100c1565b005b61007960048036038101906100749190610678565b610193565b60405161008792919061071d565b60405180910390f35b6100aa60048036038101906100a59190610678565b610330565b6040516100b892919061071d565b60405180910390f35b6040518060400160405280838152602001828152505f803373ffffffffffffffffffffffffffffffffffffffff1673ffffffffffffffffffffffffffffffffffffffff1681526020019081526020015f205f820151815f0190816101259190610955565b50602082015181600101908161013b9190610955565b509050503373ffffffffffffffffffffffffffffffffffffffff167fd2a77dca695327c7b78170ee625106d9173453156cf108c622f14d8e0c29a35c838360405161018792919061071d565b60405180910390a25050565b6060805f808473ffffffffffffffffffffffffffffffffffffffff1673ffffffffffffffffffffffffffffffffffffffff1681526020019081526020015f205f015f808573ffffffffffffffffffffffffffffffffffffffff1673ffffffffffffffffffffffffffffffffffffffff1681526020019081526020015f2060010181805461021f9061077f565b80601f016020809104026020016040519081016040528092919081815260200182805461024b9061077f565b80156102965780601f1061026d57610100808354040283529160200191610296565b820191905f5260205f20905b81548152906001019060200180831161027957829003601f168201915b505050505091508080546102a99061077f565b80601f01602080910402602001604051908101604052809291908181526020018280546102d59061077f565b80156103205780601f106102f757610100808354040283529160200191610320565b820191905f5260205f20905b81548152906001019060200180831161030357829003601f168201915b5050505050905091509150915091565b5f602052805f5260405f205f91509050805f01805461034e9061077f565b80601f016020809104026020016040519081016040528092919081815260200182805461037a9061077f565b80156103c55780601f1061039c576101008083540402835291602001916103c5565b820191905f5260205f20905b8154815290600101906020018083116103a857829003601f168201915b5050505050908060010180546103da9061077f565b80601f01602080910402602001604051908101604052809291908181526020018280546104069061077f565b80156104515780601f1061042857610100808354040283529160200191610451565b820191905f5260205f20905b81548152906001019060200180831161043457829003601f168201915b5050505050905082565b5f604051905090565b5f80fd5b5f80fd5b5f80fd5b5f80fd5b5f601f19601f8301169050919050565b7f4e487b71000000000000000000000000000000000000000000000000000000005f52604160045260245ffd5b6104ba82610474565b810181811067ffffffffffffffff821117156104d9576104d8610484565b5b80604052505050565b5f6104eb61045b565b90506104f782826104b1565b919050565b5f67ffffffffffffffff82111561051657610515610484565b5b61051f82610474565b9050602081019050919050565b828183375f83830152505050565b5f61054c610547846104fc565b6104e2565b90508281526020810184848401111561056857610567610470565b5b61057384828561052c565b509392505050565b5f82601f83011261058f5761058e61046c565b5b813561059f84826020860161053a565b91505092915050565b5f80604083850312156105be576105bd610464565b5b5f83013567ffffffffffffffff8111156105db576105da610468565b5b6105e78582860161057b565b925050602083013567ffffffffffffffff81111561060857610607610468565b5b6106148582860161057b565b9150509250929050565b5f73ffffffffffffffffffffffffffffffffffffffff82169050919050565b5f6106478261061e565b9050919050565b6106578161063d565b8114610661575f80fd5b50565b5f813590506106728161064e565b92915050565b5f6020828403121561068d5761068c610464565b5b5f61069a84828501610664565b91505092915050565b5f81519050919050565b5f82825260208201905092915050565b5f5b838110156106da5780820151818401526020810190506106bf565b5f8484015250505050565b5f6106ef826106a3565b6106f981856106ad565b93506107098185602086016106bd565b61071281610474565b840191505092915050565b5f6040820190508181035f83015261073581856106e5565b9050818103602083015261074981846106e5565b90509392505050565b7f4e487b71000000000000000000000000000000000000000000000000000000005f52602260045260245ffd5b5f600282049050600182168061079657607f821691505b6020821081036107a9576107a8610752565b5b50919050565b5f819050815f5260205f209050919050565b5f6020601f8301049050919050565b5f82821b905092915050565b5f6008830261080b7fffffffffffffffffffffffffffffffffffffffffffffffffffffffffffffffff826107d0565b61081586836107d0565b95508019841693508086168417925050509392505050565b5f819050919050565b5f819050919050565b5f61085961085461084f8461082d565b610836565b61082d565b9050919050565b5f819050919050565b6108728361083f565b61088661087e82610860565b8484546107dc565b825550505050565b5f90565b61089a61088e565b6108a5818484610869565b505050565b5b818110156108c8576108bd5f82610892565b6001810190506108ab565b5050565b601f82111561090d576108de816107af565b6108e7846107c1565b810160208510156108f6578190505b61090a610902856107c1565b8301826108aa565b50505b505050565b5f82821c905092915050565b5f61092d5f1984600802610912565b1980831691505092915050565b5f610945838361091e565b9150826002028217905092915050565b61095e826106a3565b67ffffffffffffffff81111561097757610976610484565b5b610981825461077f565b61098c8282856108cc565b5f60209050601f8311600181146109bd575f84156109ab578287015190505b6109b5858261093a565b865550610a1c565b601f1984166109cb866107af565b5f5b828110156109f2578489015182556001820191506020850194506020810190506109cd565b86831015610a0f5784890151610a0b601f89168261091e565b8355505b6001600288020188555050505b50505050505056fea26469706673582212204b6fb535d7bfb87a98af168709ddef369a8e4a02182197e653448ef8d4d2caab64736f6c63430008150033",
  "immutableReferences": {},
  "source": "// SPDX-License-Identifier: MIT\npragma solidity ^0.8.0;\n\ncontract UserLinkRegistry {\n    struct UserInfo {\n        string name;\n        string link;\n    }\n\n    mapping(address => UserInfo) public users;\n\n    event LinkAdded(address indexed user, string name, string link);\n\n    function addLink(string memory _name, string memory _link) public {\n        users[msg.sender] = UserInfo(_name, _link);\n        emit LinkAdded(msg.sender, _name, _link);\n    }\n\n    function getUserLink(address _user) public view returns (string memory name, string memory link) {\n        return (users[_user].name, users[_user].link);\n    }\n}\n",
  "sourcePath": "C:\\Users\\REVALLA LOKESH\\Desktop\\projectsih 3\\projectsih\\helloworld\\main.sol",
  "compiler": {
    "name": "solc",
    "version": "0.8.21+commit.d9974bed.Emscripten.clang"
  },
  "schemaVersion": "3.4.16",
  "updatedAt": "2024-05-09T05:48:50.204Z",
  "devdoc": {
    "kind": "dev",
    "methods": {},
    "version": 1
  },
  "userdoc": {
    "kind": "user",
    "methods": {},
    "version": 1
  }
}